S01100004F70647261636874322E73726563AC
S113000045C000004BC0000049C0000047C00000CC
S113001045C0000043C0000041C000003FC00000D4
S11300203DC0000054C0000039C0000037C00000CB
S113003035C0000033C0000031C000002FC00000F4
S11300402DC000002BC0000029C0000027C0000004
S113005025C0000023C0000021C000001FC0000014
S11300601DC000001BC0000019C0000017C0000024
S113007015C0000013C0000011C000000FC0000034
S11300800DC000000BC0000009C0000011241FBEF9
S1130090CFEFD0E1DEBFCDBF32D038C0B1CF20E04A
S11300A030E008C0EFECF7E03197F1F700C0000052
S11300B02F5F3F4F28173907ACF3089583EC83BDB6
S11300C087B7806887BF78948DE085BD08951F92B7
S11300D00F920FB60F9211248F9383B5833C29F4AA
S11300E085E783BD80E882BB04C083EC83BD8FE7D2
S11300F082BB8F910F900FBE0F901F90189580E8D0
S113010081BBDCDF8AE090E0CADFFCCFF894FFCF4C
S9030000FC
