:1000000045C0000060C000005EC000005CC0000091
:100010005AC0000058C0000056C0000054C0000084
:1000200052C0000050C000004EC000004CC0000094
:10003000C6C0000048C0000046C0000044C0000028
:1000400042C0000040C000003EC000003CC00000B4
:100050003AC0000038C0000036C0000034C00000C4
:1000600032C0000030C000002EC000002CC00000D4
:100070002AC0000028C0000026C0000024C00000E4
:1000800022C0000020C000001EC0000011241FBEBE
:10009000CFEFD0E1DEBFCDBF11E0A0E0B1E0E2E202
:1000A000F2E000E00BBF02C007900D92A830B1074C
:1000B000D9F721E0A8E0B1E001C01D92AA30B20753
:1000C000E1F7A9D0ACC09CCF59C0089585B3886032
:1000D00085BB8FEC97E00197F1F700C0000085B376
:1000E000877F85BB8FEC97E00197F1F700C0000098
:1000F0000895CF93C82F85BB85B3846085BBE6DFA9
:10010000C295C07FC5BB85B3846085BBDFDFCF915F
:100110000895CF93C82F85BB85B38B7F85BBD6DF72
:10012000C295C07FC5BB85B38B7F85BBCFDFCF9129
:10013000089581E0EEDF8FE99FE00197F1F700C0BD
:10014000000080E8E6CF08950F931F93CF93883087
:1001500088F48B0190E00896880F880F880FD9DF0C
:10016000C0E006C0F801EC0FF11D8081C2DFCF5F57
:10017000C830C0F3CF911F910F910895CF938FEFA7
:1001800084BB15BAC0E2C5BBA1DFC5BB9FDF80E859
:1001900085BB9CDF15BA9ADF80EF85BB97DF15BA68
:1001A00095DF80E685BB92DFC4DF82E0B2DF60E0EE
:1001B00071E080E0C9DF80E09CDFCF9108951F925D
:1001C0000F920FB60F9211240BB60F922F933F93FD
:1001D0004F935F936F937F938F939F93AF93BF934F
:1001E000EF93FF93E0910801F09109010995F894CC
:1001F000FF91EF91BF91AF919F918F917F916F91FF
:100200005F914F913F912F910F900BBE0F900FBEBA
:100210000F901F90189558DF80E090E00895F894B3
:02022000FFCF0E
:08022200000A1F1F0E0400007A
:00000001FF
