S014000045696E644F706472616368742E737265635B
S113000045C0000060C000005EC000005CC000008D
S11300105AC0000058C0000056C0000054C0000080
S113002052C0000050C000004EC000004CC0000090
S1130030C7C0000048C0000046C0000044C0000023
S113004042C0000040C000003EC000003CC00000B0
S11300503AC0000038C0000036C0000034C00000C0
S113006032C0000030C000002EC000002CC00000D0
S11300702AC0000028C0000026C0000024C00000E0
S113008022C0000020C000001EC0000011241FBEBA
S1130090CFEFD0E1DEBFCDBF11E0A0E0B1E0E0E200
S11300A0F2E000E00BBF02C007900D92A830B10748
S11300B0D9F721E0A8E0B1E001C01D92AA30B2074F
S11300C0E1F7AAD0ABC09CCF5DD081E090E014C032
S11300D0089585B3886085BB8FEC97E00197F1F7AD
S11300E000C0000085B3877F85BB8FEC97E0019744
S11300F0F1F700C000000895CF93C82F85BB85B3E6
S1130100846085BBE6DFC295C07FC5BB85B38460D0
S113011085BBDFDFCF910895CF93C82F85BB85B30F
S11301208B7F85BBD6DFC295C07FC5BB85B38B7F74
S113013085BBCFDFCF91089581E0EEDF8FE99FE0AB
S11301400197F1F700C0000080E8E6CF08950F930F
S11301501F93CF938B01883080F490E00896880F2A
S1130160880F880FD9DFC0E006C0F801EC0FF11D3D
S11301708081C2DFCF5FC830C0F3DEDFCF911F9133
S11301800F910895CF938FEF84BB15BAC0E2C5BB1E
S1130190A0DFC5BB9EDF80E885BB9BDF15BA99DF76
S11301A080EF85BB96DF15BA94DF80E685BB91DFCF
S11301B082E0B2DF60E071E081E0C9DFCF910895B1
S11301C01F920F920FB60F9211240BB60F922F931A
S11301D03F934F935F936F937F938F939F93AF93CB
S11301E0BF93EF93FF93E0910801F0910901099502
S11301F0F894FF91EF91BF91AF919F918F917F916F
S11302006F915F914F913F912F910F900BBE0F9083
S11302100FBE0F901F90189557DFFFCFF894FFCFB4
S10B0220000A1F1F0E04000078
S9030000FC
