:1000000045C0000061C000005FC000005DC000008E
:100010005BC0000059C0000057C0000055C0000080
:1000200053C0000051C000004FC000004DC0000090
:10003000D4C3000049C0000047C0000045C0000014
:1000400043C0000041C000003FC000003DC00000B0
:100050003BC0000039C0000037C0000035C00000C0
:1000600033C0000031C000002FC000002DC00000D0
:100070002BC0000029C0000027C0000025C00000E0
:1000800023C0000021C000001FC0000011241FBEBB
:10009000CFEFD0E1DEBFCDBF11E0A0E0B1E0EAE6F6
:1000A000F3E100E00BBF02C007900D92AA3CB1073C
:1000B000D9F721E0AAECB1E001C01D92A93DB20739
:1000C000E1F710D40C94B3099BCF80910401909177
:1000D00005018F3F2FEF920739F483E090E0909372
:1000E0000501809304010DC0019690930501809352
:1000F0000401069734F083E090E09093050180932B
:1001000004018091040190910501806C87B90895E4
:100110000895CF93DF93EC01D8DF86B1806486B970
:100120003699FECF24B185B190E0982F8827820FB1
:10013000911DEEDF99838883DF91CF91089510920E
:10014000610080EC87B986E886B90895CF93DF9384
:10015000CDB7DEB72C970FB6F894DEBF0FBECDBF7C
:10016000CE010796D6DFCE010996D3DFCE010B96DE
:10017000D0DF86E0FE013796DE01119601900D92E8
:100180008A95E1F729813A814B815C816D817E817D
:1001900080E090E02C960FB6F894DEBF0FBECDBF86
:1001A000DF91CF9108951092CA01089520E030E0C8
:1001B00008C0EFECF7E03197F1F700C000002F5FC7
:1001C0003F4F28173907ACF30895E3D2B8DF1ABAC6
:1001D0008EE191E088D261E070E080E090E09FD213
:1001E0008FE291E080D289B38038E9F7AFDF2093C6
:1001F000CB013093CC014093CD015093CE0160935D
:10020000CF017093D00183E00895EF92FF920F9396
:100210001F93CF93DF93CDB7DEB762970FB6F894F5
:10022000DEBF0FBECDBF92DF2D873E87ED84FE84FB
:100230008DDF49875A8789859A85E89E8001E99EE6
:10024000100DF89E100D112481DF6D837E838D814A
:100250009E819C01029FC001039F900D129F900DF3
:1002600011243ED53AD566E070E0C9D462960FB647
:10027000F894DEBF0FBECDBFDF91CF911F910F91DC
:10028000FF90EF900895C1DF885F9E4FFC01808151
:100290000895EF92FF920F931F93CF93DF9300D0B7
:1002A0001F92CDB7DEB703E010E00F2EFFE0EF2E78
:1002B000F12CF02D25C060E070E0C70130D281E064
:1002C000E81AF108809106019091070180179107C3
:1002D0005CF0F801319781E090E08C0F9D1FE80FF2
:1002E000F91F81E080830AC0F801319781E090E036
:1002F0008C0F9D1FE80FF91F82E0808301501109C8
:1003000010161106C4F2CE010196EDD10F900F9098
:100310000F90DF91CF911F910F91FF90EF90089573
:10032000CF93C82F10D2C230A1F028F4CC2349F0CB
:10033000C13059F01DC0C430A1F078F0C530A9F02B
:1003400017C08CE391E0CFD113C087E491E0CBD10B
:100350000FC084E591E0C7D10BC08CE591E0C3D11B
:1003600007C085E691E0BFD103C080E791E0BBD133
:10037000CF9108958F929F92AF92BF92CF92DF92CA
:10038000EF92FF920F931F93CF93DF93CDB7DEB71A
:10039000CA56D1090FB6F894DEBF0FBECDBF73DFCA
:1003A000182F63ED70E080ED97E04FD281E08093ED
:1003B000CA01C9D1812FB4DF6CDFD1C0C7DEA696D8
:1003C0002FAFA697A7963FAFA797A8964FAFA8972E
:1003D000A9965FAFA997AA966FAFAA97AB967FAF82
:1003E000AB9761E070E080E090E099D1AB96AEAC65
:1003F000BFACAB97A996CEACDFACA997A796EEACF5
:10040000FFACA7978091D6018F938091D5018F93F0
:100410008091D4018F938091D3018F93BF92AF923B
:10042000DF92CF92FF92EF928CE791E09F938F93B0
:10043000CE0101964C019F938F935DD4C40153D19B
:100440000FB6F894DEBF0FBECDBF1230A1F128F475
:10045000112359F01130E1F076C0143009F450C086
:10046000E8F1153009F45EC06EC08091CF01909123
:10047000D00102978A159B050CF465C08091D301C9
:100480009091D40101969093D4018093D3015BC0E5
:100490008091CF019091D0010296A816B9060CF474
:1004A00052C08091D3019091D40101969093D401D0
:1004B0008093D30148C08091CD019091CE010297E5
:1004C0008C159D050CF43FC08091D3019091D4010F
:1004D00001969093D4018093D30135C08091CD01D2
:1004E0009091CE010296C816D9066CF18091D30185
:1004F0009091D40101969093D4018093D30123C0AD
:100500008091CB019091CC0102978E159F05DCF074
:100510008091D3019091D40101969093D40180935E
:10052000D30111C08091CB019091CC010296E816C5
:10053000F9064CF08091D3019091D40101969093EB
:10054000D4018093D3018091D5019091D601019679
:100550009093D6018093D50184E690E027DE8091C8
:10056000CA0181112BCF6091D3017091D401072E64
:10057000000C880B990B54D26B017C016091D50162
:100580007091D601072E000C880B990B49D29B0164
:10059000AC01C701B601A9D120E030E048EC52E43B
:1005A000CBD20BD27B01CFD061E070E080E090E055
:1005B000B6D09BE0E916F1046CF08BE891E093D0A3
:1005C0008091D1019091D20101969093D2018093B4
:1005D000D10146C08CE991E086D0809106019091CE
:1005E00007010197909307018093060118161906D9
:1005F000BCF1A9D08091D2018F938091D1018F93CA
:100600008DEA91E09F938F938E010F5F1F4F1F9391
:100610000F9371D383E090E09093070180930601DC
:100620001092D2011092D101C8015DD061E070E05A
:1006300080E090E074D08FE291E055D00F900F9061
:100640000F900F900F900F9089B38038E9F71092B8
:10065000D4011092D3011092D6011092D5010CC092
:100660001092D4011092D3011092D6011092D501AC
:1006700010DE88EE93E09ADDC659DF4F0FB6F8948E
:10068000DEBF0FBECDBFDF91CF911F910F91FF90C5
:10069000EF90DF90CF90BF90AF909F908F90089594
:1006A00085B3886085BB8FEC97E00197F1F700C0B8
:1006B000000085B3877F85BB8FEC97E00197F1F74A
:1006C00000C000000895CF93C82F85BB85B3846018
:1006D00085BBE6DFC295C07FC5BB85B3846085BBA3
:1006E000DFDFCF910895CF93DF93EC0102C0219615
:1006F000EADF88818111FBCFDF91CF910895CF93FD
:10070000C82F85BB85B38B7F85BBCADFC295C07FF1
:10071000C5BB85B38B7F85BBC3DFCF910895672BA6
:1007200049F48058ECDF8FE99FE00197F1F700C0B2
:10073000000008958054E3DF8FE99FE00197F1F70F
:1007400000C00000089581E0DADF8FE99FE00197A3
:10075000F1F700C0000080E8D2CF08950F931F93F7
:10076000CF938B01883080F490E00896880F880F33
:10077000880FC5DFC0E006C0F801EC0FF11D8081D5
:10078000A2DFCF5FC830C0F3DEDFCF911F910F91A2
:100790000895CF938FEF84BB15BAC0E2C5BB80DF4D
:1007A000C5BB7EDF80E885BB7BDF15BA79DF80EFD4
:1007B00085BB76DF15BA74DF80E685BB71DF8CE020
:1007C0009EDF82E09CDF66E171E081E0C7DF6EE0E2
:1007D00071E082E0C3DFCF9108951F920F920FB6B0
:1007E0000F9211240BB60F922F933F934F935F9369
:1007F0006F937F938F939F93AF93BF93EF93FF93E9
:10080000E091D701F091D8010995F894FF91EF910B
:10081000BF91AF919F918F917F916F915F914F9118
:100820003F912F910F900BBE0F900FBE0F901F9016
:1008300018957BBD6ABD97B7906197BF78949EB5B8
:100840009EBD9EB5892B8EBD08958F929F92AF92CB
:10085000BF92CF92DF92EF92FF920F931F93CF93AD
:10086000DF938C016B01C1E0D0E025C010161106AA
:100870000CF5FE01EE0FFF1FE354FE4FE080F18008
:10088000B801012E000C880B990BCAD04B015C01FA
:10089000B7010F2C000C880B990BC2D02FE632E168
:1008A00043E059E349D19B01AC01C501B4011DD01E
:1008B00084D09B012196C630D105C4F2B901C7018D
:1008C000B8DFD092D801C092D701DF91CF911F91AC
:1008D0000F91FF90EF90DF90CF90BF90AF909F90DF
:1008E0008F90089572DC46DDFECF0CD0EBC0E3D0D4
:1008F00040F0DAD030F021F45F3F19F0CCC0511154
:1009000015C1CFC0F0D098F39923C9F35523B1F3A3
:10091000951B550BBB27AA2762177307840738F06E
:100920009F5F5F4F220F331F441FAA1FA9F333D0CD
:100930000E2E3AF0E0E830D091505040E695001C81
:10094000CAF729D0FE2F27D0660F771F881FBB1F3D
:10095000261737074807AB07B0E809F0BB0B802D17
:10096000BF01FF2793585F4F2AF09E3F510568F063
:1009700092C0DCC05F3FECF3983EDCF38695779540
:100980006795B795F7959F5FC9F7880F911D969565
:10099000879597F90895E1E0660F771F881FBB1FC1
:1009A000621773078407BA0720F0621B730B840B6E
:1009B000BA0BEE1F88F7E095089504D06894B11142
:1009C000B5C0089598D088F09F5790F0B92F992717
:1009D000B751A0F0D1F0660F771F881F991F1AF04A
:1009E000BA95C9F712C0B13081F09FD0B1E0089537
:1009F0009CC0672F782F8827B85F39F0B93FCCF3B8
:100A0000869577956795B395D9F73EF4909580953F
:100A1000709561957F4F8F4F9F4F0895E89409C05F
:100A200097FB3EF490958095709561957F4F8F4F21
:100A30009F4F9923A9F0F92F96E9BB279395F69537
:100A4000879577956795B795F111F8CFFAF4BB0FB5
:100A500011F460FF1BC06F5F7F4F8F4F9F4F16C019
:100A6000882311F096E911C0772321F09EE8872FA3
:100A7000762F05C0662371F096E8862F70E060E05F
:100A80002AF09A95660F771F881FDAF7880F9695D8
:100A9000879597F9089597F99F6780E870E060E07F
:100AA00008959FEF80EC089500240A941616170607
:100AB00018060906089500240A941216130614064F
:100AC00005060895092E0394000C11F4882352F0B2
:100AD000BB0F40F4BF2B11F460FF04C06F5F7F4F6A
:100AE0008F4F9F4F089557FD9058440F551F59F051
:100AF0005F3F71F04795880F97FB991F61F09F3F0B
:100B000079F087950895121613061406551FF2CF33
:100B10004695F1DF08C0161617061806991FF1CF83
:100B200086957105610508940895E894BB276627AA
:100B30007727CB0197F908950BD0C4CFB5DF28F004
:100B4000BADF18F0952309F0A6CFABCF1124EECF72
:100B5000CADFA0F3959FD1F3950F50E0551F629F18
:100B6000F001729FBB27F00DB11D639FAA27F00D06
:100B7000B11DAA1F649F6627B00DA11D661F829F2D
:100B80002227B00DA11D621F739FB00DA11D621F12
:100B9000839FA00D611D221F749F3327A00D611D2F
:100BA000231F849F600D211D822F762F6A2F112411
:100BB0009F5750408AF0E1F088234AF0EE0FFF1F64
:100BC000BB1F661F771F881F91505040A9F79E3F9B
:100BD000510570F060CFAACF5F3FECF3983EDCF395
:100BE000869577956795B795F795E7959F5FC1F7D8
:100BF000FE2B880F911D9695879597F9089597FB81
:100C0000072E16F4009406D077FD08D00BD007FC11
:100C100005D03EF4909581959F4F0895709561950C
:100C20007F4F0895AA1BBB1B51E107C0AA1FBB1F22
:100C3000A617B70710F0A61BB70B881F991F5A9568
:100C4000A9F780959095BC01CD0108958F929F9250
:100C5000AF92BF92CF92DF92EF92FF92CF93DF934A
:100C6000EC01688179818A819B816115710581051B
:100C7000910521F464E279ED8BE597E02DE133EF06
:100C800041E050E013D349015A019B01AC01A7EAAE
:100C9000B1E428D36B017C01ACEEB4EFA501940163
:100CA0002DD3DC01CB018C0D9D1DAE1DBF1DB7FFEB
:100CB00003C00197A109B04888839983AA83BB83A5
:100CC0009F77DF91CF91FF90EF90DF90CF90BF9013
:100CD000AF909F908F900895B9CF80E091E0B6CF0C
:100CE000A0E0B0E08093000190930101A093020185
:100CF000B093030108950F931F93CF93DF93CDB764
:100D0000DEB72E970FB6F894DEBF0FBECDBF0D89AC
:100D10001E8986E08C831A8309838FEF9FE79E8369
:100D20008D83AE01475E5F4F6F89788DCE0101964E
:100D300010D0EF81F885E00FF11F10822E960FB6CC
:100D4000F894DEBF0FBECDBFDF91CF911F910F9101
:100D500008952F923F924F925F926F927F928F925F
:100D60009F92AF92BF92CF92DF92EF92FF920F933A
:100D70001F93CF93DF93CDB7DEB72B970FB6F894C1
:100D8000DEBF0FBECDBF6C017B018A01FC01178263
:100D90001682838181FFBFC1CE0101963C01F6011D
:100DA0009381F70193FD859193FF81917F018823C2
:100DB00009F4ADC1853239F493FD859193FF81919A
:100DC0007F01853221F4B60190E0D6D1E8CF912C95
:100DD000212C312CFFE1F315D8F08B3279F038F467
:100DE000803279F08332A1F4232D20611DC08D3231
:100DF00061F0803369F4232D216016C0832D826059
:100E0000382EE32DE4603E2E2AC0F32DF8601DC07D
:100E100037FC2DC020ED280F2A3040F08E32B9F477
:100E200036FC75C1232D2064322E19C036FE06C053
:100E30008AE0989E200D1124922E11C0EAE02E9E89
:100E4000200D1124222EF32DF0623F2E08C08C3687
:100E500021F4832D8068382E02C0883641F4F701D2
:100E600093FD859193FF81917F018111B3CF982FDD
:100E70009F7D9554933028F40C5F1F4F9FE3998317
:100E80000DC0833631F0833771F0833509F055C0DA
:100E900020C0F801808189830E5F1F4F88248394CE
:100EA000912C530112C02801F2E04F0E511CF801A1
:100EB000A080B18036FE03C0692D70E002C06FEFE4
:100EC0007FEFC5014ED14C018201F32DFF773F2EFC
:100ED00015C0280122E0420E511CF801A080B1800B
:100EE00036FE03C0692D70E002C06FEF7FEFC501D1
:100EF0002DD14C01F32DF0683F2E820133FC19C037
:100F0000822D90E088169906A0F4B60180E290E068
:100F100033D12A94F5CFF50137FC859137FE8191C5
:100F20005F01B60190E028D121102A9421E0821AB5
:100F300091088114910479F7E1C0843611F0893663
:100F400039F5F80137FE07C0608171818281938194
:100F50000C5F1F4F08C060817181072E000C880B49
:100F6000990B0E5F1F4FF32DFF763F2E97FF09C0A1
:100F700090958095709561957F4F8F4F9F4FF0684A
:100F80003F2E2AE030E0A30133D1882E861844C0DA
:100F9000853731F4232D2F7EB22E2AE030E025C094
:100FA000932D997FB92E8F36C1F018F4883579F0DA
:100FB000AEC0803719F0883721F0A9C0E92FE06171
:100FC000BE2EB4FE0DC0FB2DF460BF2E09C034FE52
:100FD0000AC0292F2660B22E06C028E030E005C0E6
:100FE00020E130E002C020E132E0F801B7FE07C0A6
:100FF00060817181828193810C5F1F4F06C0608187
:10100000718180E090E00E5F1F4FA301F1D0882E28
:101010008618FB2DFF773F2E36FE0DC0232D2E7F29
:10102000A22E891458F434FE0BC032FC09C0832D63
:101030008E7EA82E05C0B82CA32C03C0B82C01C0EE
:10104000B92CA4FE0FC0FE01E80DF11D8081803394
:1010500021F49A2D997EA92E09C0A2FE06C0B39450
:10106000B39404C08A2D867809F0B394A3FC10C011
:10107000A0FE06C0B21480F4280C922C9B180DC060
:10108000B21458F4B60180E290E076D0B394F8CF71
:10109000B21418F42B1802C0982C212CA4FE0FC0F7
:1010A000B60180E390E068D0A2FE16C0A1FC03C0A8
:1010B00088E790E002C088E590E0B6010CC08A2D78
:1010C000867851F0A1FE02C08BE201C080E2A7FC4D
:1010D0008DE2B60190E050D0891430F4B60180E37F
:1010E00090E04AD09A94F8CF8A94F301E80DF11D6C
:1010F0008081B60190E040D08110F6CF222009F423
:101100004ECEB60180E290E037D02A94F7CFF601B8
:101110008681978102C08FEF9FEF2B960FB6F894D0
:10112000DEBF0FBECDBFDF91CF911F910F91FF901A
:10113000EF90DF90CF90BF90AF909F908F907F9077
:101140006F905F904F903F902F900895FC01059015
:10115000615070400110D8F7809590958E0F9F1FB9
:101160000895FC016150704001900110D8F78095FE
:1011700090958E0F9F1F08950F931F93CF93DF932A
:10118000FB01238121FD03C08FEF9FEF2CC022FFC5
:1011900016C046815781248135814217530744F494
:1011A000A081B1819D012F5F3F4F318320838C93BC
:1011B000268137812F5F3F4F3783268314C08B01F1
:1011C000EC01FB010084F185E02D0995892BE1F606
:1011D000D80116968D919C911797019617969C931E
:1011E0008E931697CE01DF91CF911F910F910895A5
:1011F000FA01AA27283051F1203181F1E8946F9348
:101200006E7F6E5F7F4F8F4F9F4FAF4FB1E03ED0ED
:10121000B4E03CD0670F781F891F9A1FA11D680F8B
:10122000791F8A1F911DA11D6A0F711D811D911DBE
:10123000A11D20D009F468943F912AE0269F112433
:101240003019305D3193DEF6CF010895462F477097
:10125000405D4193B3E00FD0C9F7F6CF462F4F70F2
:10126000405D4A3318F0495D31FD4052419302D050
:10127000A9F7EACFB4E0A6959795879577956795F6
:10128000BA95C9F700976105710508959B01AC01F6
:101290000A2E06945795479537952795BA95C9F71D
:1012A000620F731F841F951FA01D0895052E97FBC5
:1012B00016F400940FD057FD05D024D007FC02D0BF
:1012C00046F408C050954095309521953F4F4F4FBB
:1012D0005F4F089590958095709561957F4F8F4FE2
:1012E0009F4F089531D0A59F900DB49F900DA49F5E
:1012F000800D911D11240895B7FFF4CFF3DF821BF9
:10130000930B0895A1E21A2EAA1BBB1BFD010DC071
:10131000AA1FBB1FEE1FFF1FA217B307E407F507A5
:1013200020F0A21BB30BE40BF50B661F771F881F81
:10133000991F1A9469F760957095809590959B0117
:10134000AC01BD01CF010895A29FB001B39FC001C0
:10135000A39F700D811D1124911DB29F700D811DE1
:0A1360001124911D0895F894FFCFA9
:10136A0001000000FFFF0300000102030405000A58
:10137A0015110A040000000A1F1F0E04000053740E
:10138A00617274696E672075702067616D650050BF
:10139A0072657373205041372E2E2E00476F2075C9
:1013AA0070776172647300476F20646F776E77613C
:1013BA0072647300476F206C65667400476F207211
:1013CA006967687400476F20666F7277617264009C
:1013DA00476F206261636B776172640025643B2505
:1013EA00643B25642C25642C25640020496E7075A5
:1013FA007420436F7272656374212000496E7075A0
:10140A007420496E636F7272656374210047616D5F
:10141A0065204F7665722120533A25640000000149
:0A142A0000020003000400050000AA
:00000001FF
