:1000000045C0000060C000005EC000005CC0000091
:100010005AC0000058C0000056C0000054C0000084
:1000200052C0000050C000004EC000004CC0000094
:100030003AC2000048C0000046C0000044C00000B2
:1000400042C0000040C000003EC000003CC00000B4
:100050003AC0000038C0000036C0000034C00000C4
:1000600032C0000030C000002EC000002CC00000D4
:100070002AC0000028C0000026C0000024C00000E4
:1000800022C0000020C000001EC0000011241FBEBE
:10009000CFEFD0E1DEBFCDBF11E0A0E0B1E0EAE9F3
:1000A000FBE000E00BBF02C007900D92A038B10743
:1000B000D9F721E0A0E8B1E001C01D92AB38B2074A
:1000C000E1F776D268C59CCFFC010FB6F894609139
:1000D0008701709188018091890190918A010FBEFA
:1000E000309721F060837183828393830895809198
:1000F0000401909105018F3F2FEF920739F483E0BF
:1001000090E090930501809304010DC001969093B7
:10011000050180930401069734F083E090E090930A
:100120000501809304018091040190910501806C88
:1001300087B90895BC01990F880B990B3CD320E037
:1001400030E442E154E437D220E030E442E954E4C0
:1001500097D220E030E64AEE56E4BDD3F9D2CB0187
:100160000895CF93DF93EC01C2DF86B1806486B936
:100170003699FECF24B185B190E0982F8827820F61
:10018000911DD8DF99838883DF91CF9108951092D4
:10019000610080EC87B986E886B90895CF93DF9334
:1001A000CDB7DEB72C970FB6F894DEBF0FBECDBF2C
:1001B000CE010796D6DFCE010996D3DFCE010B968E
:1001C000D0DF86E0FE013796DE01119601900D9298
:1001D0008A95E1F729813A814B815C816D817E812D
:1001E00080E090E02C960FB6F894DEBF0FBECDBF36
:1001F000DF91CF91089510928001089520E030E0C2
:1002000008C0EFECF7E03197F1F700C000002F5F76
:100210003F4F28173907ACF308952BD1B8DF83E09F
:10022000089580E090E050DFCB014DD449D466E0E2
:1002300070E0D8C3F6DF8A5F9E4FFC01808108958D
:100240008230A1F028F4882349F0813059F00895D4
:100250008430A1F078F08530A9F008958CE091E029
:10026000FBC0089588E191E0F7C0089586E291E02F
:10027000F3C008958FE291E0EFC0089589E391E023
:10028000EBC0089585E491E0E7C00895CF92DF9236
:10029000EF92FF921F93CF93DF93CDB7DEB76297B4
:1002A0000FB6F894DEBF0FBECDBFC4DF182F6BEFC3
:1002B00070E080ED97E02FD181E080938001812F65
:1002C000BFDF49C0143018F4123020F015C01630CA
:1002D00028F135C063DF2D873E878D859E851816F2
:1002E00019066CF58091810190918201019690939D
:1002F00082018093810123C051DF49875A87898514
:100300009A8518161906DCF480918101909182017A
:100310000196909382018093810111C03FDF6D832C
:100320007E838D819E81181619064CF4809181017F
:100330009091820101969093820180938101809136
:1003400083019091840101969093840180938301AD
:1003500084E690E053DF809180018111B3CF6091FA
:10036000830170918401072E000C880B990B23D216
:100370009B01AC0160E070E088EC92E481D16B01FC
:100380007C016091810170918201072E000C880B25
:10039000990B11D29B01AC01C701B6019CD220E0A0
:1003A00030E040EA50E493D2181624F482E591E05C
:1003B00053D003C083E691E04FD088EE93E01EDF78
:1003C00062960FB6F894DEBF0FBECDBFDF91CF911E
:1003D0001F91FF90EF90DF90CF90089585B38860D4
:1003E00085BB8FEC97E00197F1F700C0000085B363
:1003F000877F85BB8FEC97E00197F1F700C0000085
:100400000895CF93C82F85BB85B3846085BBE6DF95
:10041000C295C07FC5BB85B3846085BBDFDFCF914C
:100420000895CF93C82F85BB85B38B7F85BBD6DF5F
:10043000C295C07FC5BB85B38B7F85BBCFDFCF9116
:10044000089581E0EEDF8FE99FE00197F1F700C0AA
:10045000000080E8E6CF0895CF93DF93EC01F1DF51
:1004600002C02196CEDF88818111FBCFDF91CF9131
:100470000895CF938FEF84BB15BAC0E2C5BBAEDF42
:10048000C5BBACDF80E885BBA9DF15BAA7DF80EF6D
:1004900085BBA4DF15BAA2DF80E685BB9FDF82E0C3
:1004A000C0DFCF9108951F920F920FB60F921124C3
:1004B0000BB60F922F933F934F935F936F937F935E
:1004C0008F939F93AF93BF93EF93FF93E091850139
:1004D000F09186010995F894FF91EF91BF91AF914A
:1004E0009F918F917F916F915F914F913F912F914C
:1004F0000F900BBE0F900FBE0F901F9018957BBDF5
:100500006ABD97B7906197BF78949EB59EBD9EB522
:10051000892B8EBD08958F929F92AF92BF92CF92FA
:10052000DF92EF92FF920F931F93CF93DF938C0193
:100530006B01C1E0D0E025C0101611060CF5FE01DC
:10054000EE0FFF1FEC58FE4FE080F180B801012E46
:10055000000C880B990B2FD14B015C01B7010F2CBC
:10056000000C880B990B27D12FE632E143E059E3C9
:10057000B2D19B01AC01C501B40182D0E9D09B018D
:100580002196C630D105C4F2B901C701B8DFD092B7
:100590008601C0928501DF91CF911F910F91FF904D
:1005A000EF90DF90CF90BF90AF909F908F90089585
:1005B00034DE6CDEFECF5058BB27AA270ED04DC1CB
:1005C0003ED130F043D120F031F49F3F11F41EF4BE
:1005D00033C10EF4E095E7FB29C1E92F4FD180F339
:1005E000BA17620773078407950718F071F49EF530
:1005F00067C10EF4E0950B2EBA2FA02D0B01B901A7
:1006000090010C01CA01A0011124FF27591B99F088
:10061000593F50F4503E68F11A16F040A22F232F94
:10062000342F4427585FF3CF469537952795A795E4
:10063000F0405395C9F77EF41F16BA0B620B730B8B
:10064000840BBAF09150A1F0FF0FBB1F661F771FFC
:10065000881FC2F70EC0BA0F621F731F841F48F4B1
:10066000879577956795B795F7959E3F08F0B3CF37
:100670009395880F08F09927EE0F97958795089521
:100680000CD0EBC0E3D040F0DAD030F021F45F3F83
:1006900019F0CCC0511115C1CFC0F0D098F39923F7
:1006A000C9F35523B1F3951B550BBB27AA27621736
:1006B0007307840738F09F5F5F4F220F331F441F7B
:1006C000AA1FA9F333D00E2E3AF0E0E830D09150B3
:1006D0005040E695001CCAF729D0FE2F27D0660FA0
:1006E000771F881FBB1F261737074807AB07B0E8DF
:1006F00009F0BB0B802DBF01FF2793585F4F2AF0F5
:100700009E3F510568F092C0DCC05F3FECF3983E1D
:10071000DCF3869577956795B795F7959F5FC9F751
:10072000880F911D9695879597F90895E1E0660FDA
:10073000771F881FBB1F621773078407BA0720F053
:10074000621B730B840BBA0BEE1F88F7E0950895BC
:1007500004D06894B111B5C0089598D088F09F571F
:1007600090F0B92F9927B751A0F0D1F0660F771FFD
:10077000881F991F1AF0BA95C9F712C0B13081F0DD
:100780009FD0B1E008959CC0672F782F8827B85F6D
:1007900039F0B93FCCF3869577956795B395D9F73E
:1007A0003EF490958095709561957F4F8F4F9F4F48
:1007B0000895E89409C097FB3EF490958095709554
:1007C00061957F4F8F4F9F4F9923A9F0F92F96E99D
:1007D000BB279395F695879577956795B795F11112
:1007E000F8CFFAF4BB0F11F460FF1BC06F5F7F4FAF
:1007F0008F4F9F4F16C0882311F096E911C07723C1
:1008000021F09EE8872F762F05C0662371F096E8C9
:10081000862F70E060E02AF09A95660F771F881F98
:10082000DAF7880F9695879597F9089597F99F6756
:1008300080E870E060E008959FEF80EC0895002468
:100840000A941616170618060906089500240A9435
:1008500012161306140605060895092E0394000CBB
:1008600011F4882352F0BB0F40F4BF2B11F460FF4A
:1008700004C06F5F7F4F8F4F9F4F089557FD905873
:10088000440F551F59F05F3F71F04795880F97FB54
:10089000991F61F09F3F79F087950895121613060E
:1008A0001406551FF2CF4695F1DF08C0161617063D
:1008B0001806991FF1CF8695710561050894089572
:1008C000E894BB2766277727CB0197F9089566D070
:1008D00008F48FEF08950BD0C0CFB1DF28F0B6DF5A
:1008E00018F0952309F0A2CFA7CF1124EACFC6DFD5
:1008F000A0F3959FD1F3950F50E0551F629FF00133
:10090000729FBB27F00DB11D639FAA27F00DB11D8B
:10091000AA1F649F6627B00DA11D661F829F222714
:10092000B00DA11D621F739FB00DA11D621F839F9B
:10093000A00D611D221F749F3327A00D611D231F71
:10094000849F600D211D822F762F6A2F11249F57BF
:1009500050408AF0E1F088234AF0EE0FFF1FBB1FE2
:10096000661F771F881F91505040A9F79E3F510581
:1009700070F05CCFA6CF5F3FECF3983EDCF386953A
:1009800077956795B795F795E7959F5FC1F7FE2B2C
:10099000880F911D9695879597F90895990F0008EE
:1009A000550FAA0BE0E8FEEF16161706E807F90741
:1009B000C0F012161306E407F50798F0621B730BDC
:1009C000840B950B39F40A2661F0232B242B252B5D
:1009D00021F408950A2609F4A140A6958FEF811D00
:1009E000811D089597FB072E16F4009406D077FD1D
:1009F00008D00BD007FC05D03EF4909581959F4F11
:100A00000895709561957F4F0895AA1BBB1B51E116
:100A100007C0AA1FBB1FA617B70710F0A61BB70B6E
:100A2000881F991F5A95A9F780959095BC01CD0113
:100A300008958F929F92AF92BF92CF92DF92EF92E2
:100A4000FF92CF93DF93EC01688179818A819B814A
:100A5000611571058105910521F464E279ED8BE55D
:100A600097E02DE133EF41E050E038D049015A01E1
:100A70009B01AC01A7EAB1E44DD06B017C01ACEE67
:100A8000B4EFA501940152D0DC01CB018C0D9D1D6A
:100A9000AE1DBF1DB7FF03C00197A109B0488883F1
:100AA0009983AA83BB839F77DF91CF91FF90EF90CB
:100AB000DF90CF90BF90AF909F908F900895B9CF67
:100AC00080E091E0B6CFA0E0B0E080930001909389
:100AD0000101A0930201B09303010895052E97FB35
:100AE00016F400940FD057FD05D024D007FC02D097
:100AF00046F408C050954095309521953F4F4F4F93
:100B00005F4F089590958095709561957F4F8F4FB9
:100B10009F4F089531D0A59F900DB49F900DA49F35
:100B2000800D911D11240895B7FFF4CFF3DF821BD0
:100B3000930B0895A1E21A2EAA1BBB1BFD010DC049
:100B4000AA1FBB1FEE1FFF1FA217B307E407F5077D
:100B500020F0A21BB30BE40BF50B661F771F881F59
:100B6000991F1A9469F760957095809590959B01EF
:100B7000AC01BD01CF010895A29FB001B39FC00198
:100B8000A39F700D811D1124911DB29F700D811DB9
:0A0B90001124911D0895F894FFCF81
:100B9A0001000000FFFF00010203040520476F2047
:100BAA00757077617264730020476F20646F776E87
:100BBA0077617264730020476F206C656674002049
:100BCA00476F2072696768740020476F20666F72EA
:100BDA00776172640020476F206261636B7761728C
:100BEA00640020496E70757420436F727265637475
:100BFA00212000496E70757420496E636F727265A8
:100C0A0063742100000001000200030004000500D3
:00000001FF
